:107800000C94343C0C94513C0C94513C0C94513CE1
:107810000C94513C0C94513C0C94513C0C94513CB4
:107820000C94513C0C94513C0C94513C0C94513CA4
:107830000C94513C0C94513C0C94513C0C94513C94
:107840000C94513C0C94513C0C94513C0C94513C84
:107850000C94513C0C94513C0C94513C0C94513C74
:107860000C94513C0C94513C11241FBECFEFD8E036
:10787000DEBFCDBF11E0A0E0B1E0E6E0FCE702C072
:1078800005900D92A630B107D9F711E0A6E0B1E05E
:1078900001C01D92AC30B107E1F70E946E3C0C9420
:1078A000013E0C94003C982F8091C00085FFFCCFD6
:1078B0009093C60008958091C00087FFFCCF80910F
:1078C000C600089585B1817085B981E085BF15BE78
:1078D000E0910601F0910701099508954F925F929A
:1078E0006F927F928F929F92AF92BF92CF92DF92D0
:1078F000EF92FF920F931F93CF93DF9304B603FE93
:1079000006C0E0910601F0910701099508C088E1E1
:107910000FB6F89480936000109260000FBE109232
:10792000C50087E08093C40086E08093C20088E1B0
:107930008093C10082E60E94533C2098289A8FEFE2
:107940008A95F1F7189B05C081E60E94533C0E947E
:10795000623C80E70E94533C53E0752E662463949A
:1079600045E0542E31E1432E0E945B3C863509F4FC
:107970007AC08735C8F48C3409F4FBC08D3450F4D8
:10798000823409F482C0853409F4F3C0813409F0EB
:1079900034C128C0833509F45DC0843509F44AC078
:1079A000803509F02AC1E5C0853669F1863648F48C
:1079B0008136B1F0823609F460C0883509F01DC106
:1079C00059C0803709F454C0813720F4873609F054
:1079D00014C1D1C0833789F1843709F00EC135C095
:1079E00089E50CC10E945B3C182F0E945B3CB12EC4
:1079F000AA2490E08A299B29909309018093080189
:107A0000880F991F12C080E090E00BC007B600FC01
:107A1000FDCFF999FECFFC0170925700E895805890
:107A20009F4F28E78030920788F390930B01809353
:107A30000A019FC00E945B3C9CC08FE00E94533CA7
:107A400085E90E94533C8EE1D9C085E30E94533CF6
:107A500080E0D4C0C0E0D1E003C00E94533C219636
:107A600088818823D1F780E30E94533C82E3C6C01B
:107A700083E5C4C00E94623C7CC089E50E94533CFF
:107A800080E00E94533C80E8B9C00E945B3C0E94A9
:107A90005B3C082F813808F0B0C00E945B3C863404
:107AA00009F048C080910A0190910B0181509847DC
:107AB00018F080E00E94533CC0900A01D0900B0166
:107AC00007B600FCFDCFE02EE694E601FF2412C0CD
:107AD0000E945B3C082F0E945B3C982E882410E09B
:107AE000082919290801FE0160925700E895112420
:107AF0002296F394FE1460F32E2D30E0220F331FF4
:107B00002C0D3D1D07B600FCFDCFF999FECF8091ED
:107B10000A0190910B01FC0150925700E89507B6BD
:107B200000FCFDCF40925700E89530930B01209365
:107B30000A011FC0853409F060C010E018C00E941F
:107B40005B3C2091080130910901F999FECF1FBAE1
:107B500032BD21BD80BD0FB6F894FA9AF99A0FBED6
:107B60002F5F3F4F30930901209308011F5F1017CB
:107B700030F38DE043C00E945B3C0E945B3CE82EEA
:107B80000E945B3C8634E1F4FF2417C0E0910A01B7
:107B9000F0910B0105911491802F0E94533C812F8D
:107BA0000E94533C80910A0190910B0102969093A0
:107BB0000B0180930A0182E0F80EFE1438F3D4CE54
:107BC0008534D9F410E016C0809108019091090124
:107BD000F999FECF92BD81BDF89A80B50E94533CC1
:107BE0008091080190910901019690930901809379
:107BF00008011F5F1E1540F3B7CE8FE30E94533C70
:067C0000B3CEF894FFCFA3
:067C060046444C2076000C
:040000030000780081
:00000001FF
