:103800000C94341C0C944F1C0C944F1C0C944F1CA7
:103810000C944F1C0C944F1C0C944F1C0C944F1C7C
:103820000C944F1C0C944F1C0C944F1C0C944F1C6C
:103830000C944F1C0C944F1C0C944F1C0C944F1C5C
:103840000C944F1C0C944F1C0C944F1C0C944F1C4C
:103850000C944F1C0C944F1C0C944F1C0C944F1C3C
:103860000C944F1C0C944F1C11241FBECFEFD4E0BE
:10387000DEBFCDBF11E0A0E0B1E0E6E0FCE302C0B6
:1038800005900D92A630B107D9F711E0A6E0B1E09E
:1038900001C01D92AC30B107E1F70C946D1C0C9483
:1038A000001C982F8091C00085FFFCCF9093C6002C
:1038B00008958091C00087FFFCCF8091C6009927B2
:1038C000089585B1817085B981E085BF15BEE0910D
:1038D0000601F091070109950895CFEFD4E0DEBF0E
:1038E000CDBF04B603FE06C0E0910601F0910701CA
:1038F000099508C088E10FB6F89480936000109293
:1039000060000FBE1092C50087E08093C40086E07F
:103910008093C20088E18093C10082E60E94511C1E
:103920002098289A8FEF8A95F1F7189B05C081E6B9
:103930000E94511C0E94611C80E70E94511C0E9441
:10394000591C863509F483C08735C8F48C3409F4D2
:1039500001C18D3450F4823409F48BC0853409F4EC
:10396000F9C0813409F039C128C0833509F466C033
:10397000843509F453C0803509F02FC1EBC085367A
:1039800091F1863648F48136B1F0823609F469C087
:10399000883509F022C162C0803709F45DC08137E3
:1039A00020F4873609F019C1D7C08337D1F18437A5
:1039B00009F013C13EC089E5C0CF0E94591C082FF1
:1039C0000E94591C1127102F00279927082B192B0B
:1039D0001093090100930801000F111F10930B01B0
:1039E00000930A01B7C010920B0110920A0180E007
:1039F00090E023E007B600FCFDCFF999FECFFC0173
:103A000020935700E89580589F4F38E38030930704
:103A100088F390930B0180930A019CC00E94591C6B
:103A200099C086E00E94511C84E90E94511C8EE1DD
:103A300084CF85E30E94511C80E07FCFC0E0D1E0BD
:103A400003C00E94511C219688818823D1F780E30E
:103A50000E94511C82E371CF83E56FCF0E94611CED
:103A600079C089E50E94511C80E00E94511C80E8C9
:103A700064CF0E94591C0E94591CD82E80E88D15D5
:103A800008F4ABC00E94591C863409F049C08091EB
:103A90000A0190910B018150984318F080E00E9438
:103AA000511CC0910A01D0910B0107B600FCFDCF5B
:103AB000EE24FF2413C00E94591C082F0E94591C99
:103AC00021E011279927982F8827082B192B080107
:103AD000FE0120935700E895112422969E2D08940C
:103AE000E11CF11C8D2D8695981728F307B600FC74
:103AF000FDCFF999FECF25E080910A0190910B014D
:103B0000FC0120935700E89507B600FCFDCF81E14A
:103B100080935700E895D0930B01C0930A011AC017
:103B2000853409F05AC000E013C00E94591CA091CE
:103B30000801B0910901082E0E94F71D809108012B
:103B400090910901019690930901809308010F5FFC
:103B50000D1559F78DE0F1CE0E94591C0E94591C99
:103B6000E82E0E94591C8634F1F4FF2419C0E0911C
:103B70000A01F0910B0105911491802F0E94511CB4
:103B8000012F1127802F0E94511C80910A019091D2
:103B90000B01029690930B0180930A0132E0F30E21
:103BA000FE1428F3CCCE8534C1F400E013C0A091FC
:103BB0000801B09109010E94EF1D802D0E94511C47
:103BC00080910801909109010196909309018093D9
:103BD00008010F5F0E1559F7B2CE8FE3AECEF999FB
:103BE000FECFB2BDA1BDF89A119600B40895F9991F
:103BF000FECFB2BDA1BD00BC11960FB6F894FA9AE3
:063C0000F99A0FBE0895C1
:063C060046444C2076004C
:0400000300003800C1
:00000001FF
